:100000000C9419040C9451040C9451040C94510454
:100010000C9451040C9451040C9451040C9451040C
:100020000C9451040C9451040C9446160C94021632
:100030000C943B220C9451040C9451040C945104E4
:100040000C9451040C9451040C9451040C945104DC
:100050000C9451040C941F170C9451040C945104EB
:100060000C9451040C9451040C9451040C945104BC
:100070000C9451040C9451040C9451040C945104AC
:100080000C9451040C9451040C9451040C9451049C
:100090000C9451040C9451040C9451040C9451048C
:1000A0000C9451040C9451040C94510405010980E2
:1000B000A101850319012AB700150126B700950192
:1000C00075108100C0050C0901A101850419012AE0
:1000D000A002150126A002950175108100C005013E
:1000E0000906A1018506050719E029E71500250184
:1000F0009508750181020507190029EF15002501F2
:1001000095F075018102050819012905950575010C
:100110009102950175039101C00660FF0961A1017B
:100120000962150026FF00952075088102096315F4
:100130000026FF00952075089102C005010906A15F
:1001400001050719E029E7150025019508750181CA
:10015000029501750881010507190029FF15002680
:10016000FF00950675088100050819012905950508
:1001700075019102950175039101C0000000000016
:10018000000000000000000000000000000000006F
:100190000000000000000000000000000000007EE1
:1001A0000F00D4FFFFFFC700000078000000000030
:1001B0000000002A2B2800000000000000000000C2
:1001C00000000000000029000000002C1E34202147
:1001D0002224342627252E362D3738271E1F20218E
:1001E00022232425263333362E37381F04050607ED
:1001F00008090A0B0C0D0E0F101112131415161707
:1002000018191A1B1C1D2F3130232D350405060724
:1002100008090A0B0C0D0E0F1011121314151617E6
:1002200018191A1B1C1D2F3130354C1E0F050001EB
:1002300001010101010101010202020202020202A6
:100240000203030303030303030404040404040478
:10025000050505050506060606060707070707083C
:10026000080808090909090A0A0A0B0B0B0C0C0CEF
:100270000D0D0D0E0E0E0F0F0F1010111111121289
:1002800013131414151516161717181819191A1A06
:100290001B1B1C1D1D1E1E1F202021222223242467
:1002A000252626272829292A2B2C2D2D2E2F3031A3
:1002B0003232333435363738393A3B3C3D3E3F40B5
:1002C0004142434445464748494A4C4D4E4F5051A0
:1002D0005354555658595A5B5D5E5F61626465665A
:1002E00068696B6C6D6F7072737577787A7B7D7EE1
:1002F0008082838587888A8C8E8F91939596989A31
:100300009C9EA0A2A3A5A7A9ABADAFB1B3B5B7BA48
:10031000BCBEC0C2C4C6C9CBCDCFD1D4D6D8DBDD1C
:10032000DFE2E4E7E9EBEEF0F3F5F8FAFDFF222374
:10033000252628292A2C2D2F3032333536383A3BC2
:100340003D3E4042434547494A4C4E505153555714
:10035000595A5C5E6062646668696B6D6F71737533
:1003600077797B7D7F81838587898A8C8E90929433
:1003700096989A9C9E9FA1A3A5A7A8AAACAEAFB140
:10038000B3B4B6B8B9BBBCBEBFC1C2C3C5C6C7C98A
:10039000CACBCCCDCED0D1D2D2D3D4D5D6D7D7D844
:1003A000D9D9DADADBDBDBDCDCDCDCDCDDDDDDDD96
:1003B000DCDCDCDCDCDBDBDBDADAD9D9D8D7D7D69E
:1003C000D5D4D3D2D2D1D0CECDCCCBCAC9C7C6C555
:1003D000C3C2C1BFBEBCBBB9B8B6B4B3B1AFAEAC9B
:1003E000AAA8A7A5A3A19F9E9C9A98969492908E46
:1003F0008C8A89878583817F7D7B79777573716F1F
:100400006D6B6968666462605E5C5A5957555351FA
:10041000504E4C4A4947454342403E3D3B3A3836B0
:10042000353332302F2D2C2A29282625232214401B
:10043000C0008C2042080401C40F7CE14517F4C1C0
:10044000C71E6CA24926E482CB2D5C634D35440067
:10045000C103BCE0420B34C1C412ACA1461A2482D1
:10046000C8219C624A291443CC30207080019850E6
:100470000209103184108811061800F2871F78D203
:100480000927F0B28B2E68930D3650308104C810C6
:10049000030C40F18413B8D1061B30B28822A89215
:1004A0000A2A20738C312CA04002A480C2091C614E
:1004B00044119441C6180C2248208402CA27FCE249
:1004C0004B2F74C3CD365C604105D440C30C4C2126
:1004D0004514C401C71BB4C2CA2A2CA34C3238D05D
:1004E000000328910412A071861918520821903235
:1004F0008A2808130C3080F38D3768900106E0706D
:10050000830D58510515D031871C48120924C0F2BB
:100510008A2B38D30C330810000080F08107F8D004
:10052000030FD8520B2DECA0430E6481C515DC617E
:10053000471D5442C924CC224B2C4403CD332900FF
:100540001E001F002000210022002300240025009F
:10055000260027002D002E002A0035022B00140053
:100560001A000800150017001C0018000C001200EB
:1005700013002F00300031004C0039000400160039
:10058000070009000A000B000D000E000F003300E9
:100590003400000028004B00E10000001D001B009B
:1005A0000600190005001100100036003700380061
:1005B000E50052004E00E000E300E2000000000011
:1005C00000002C00000000000151AA00A90050000A
:1005D00051004F00005C3A003B003C003D003E00F3
:1005E0003F0040004100420043004400450001003C
:1005F00001000100010001000100010001000100F3
:1006000001000100010001000100010001000100E2
:10061000390001000100010001000100010001009A
:1006200001000100010001000000010001000100C3
:1006300000000100010001000100010001000100B3
:100640000100010001000100C95C0100010001007E
:100650000100000000000000C25C0000000001007A
:10066000010001000100CA5C01000100010001005D
:100670000100010001000100010001000100010072
:100680000100010001000100010001000100010062
:100690000100010001000100010001000100010052
:1006A0000100010001000100010001000100010042
:1006B0000100010001000100010001000100000033
:1006C0000100010001000000010001000100010023
:1006D0000100010001000100010001000100010012
:1006E0000100010001000100000000000000010005
:1006F00000000000010001000100010001000100F4
:1007000001000100010001000100010001000100E1
:1007100001000100010001000100010001000100D1
:1007200001000100010001000100010001000100C1
:1007300001000100010001000100010001000100B1
:1007400001000100010001000100010001000100A1
:100750000100010000000100010001000000010093
:100760000100010001000100010001000100010081
:100770000100010001000100010001000100000072
:100780000000000001000000000001000100010065
:1007900001000100010009025B00030100A0FA0949
:1007A00004000001030101000921110100012240A0
:1007B000000705810308000109040100020300008D
:1007C00000092111010001222200070582032000F7
:1007D00001070503032000010904020001030000D2
:1007E00000092111010001226D000705840320008A
:1007F000011201000200000008504B3111020001FB
:100800000200010E0362006D0036003800760032EF
:1008100000000018034B00500020007200650070BB
:1008200000750062006C00690063000000040309A9
:10083000040011241FBECFEFDAE0DEBFCDBF04B647
:1008400003FE18C08091E9069091EA06A091EB069C
:10085000B091EC068730904BA740B04B59F4109202
:10086000E9061092EA061092EB061092EC06E0E020
:10087000F8E3099526E0A8EAB2E001C01D92A93E7E
:10088000B207E1F712E0A0E0B1E0ECE5F6E502C066
:1008900005900D92A83AB107D9F70E9462220C94F4
:1008A000032B0C9400009091DD06937061F0811190
:1008B0000BC094609093DD06109231018091DC06AC
:1008C00081608093DC060895833010F09860F2CF49
:1008D000880F880F982BEECF9091DD06937059F01A
:1008E0008093DE066093DF064093E0068091DC068D
:1008F00081608093DC060895E8EDF0E080818E7FD2
:1009000080831092E2001092DA001092E100A0EED3
:10091000B0E08C9181608C9380818F77808319BC4B
:10092000A7EDB0E08C918E7F8C9380818F7E808349
:100930001092AA0608952091E4003091E50095E612
:10094000A9012091EC00822F817020FF06C08091C8
:10095000E80080FF06C080E008952091E80022FDB5
:100960001AC08091CF06882389F0853089F0809164
:10097000EB0085FD0FC02091E4003091E5004217A7
:100980005307F9F29150E1F684E0089582E008956A
:1009900083E0089581E00895EF92FF920F931F93F3
:1009A000CF937C018B010E949B04C82F811117C03B
:1009B0008091E80085FD0BC08091E8008E778093E0
:1009C000E8000E949B04882399F3C82F08C0F70110
:1009D00081917F018093F1000150110949F78C2F1B
:1009E000CF911F910F91FF90EF9008958091D106C4
:1009F00087FF13C08091E80082FF06C08091E80065
:100A00008B778093E80004C08091CF068111F2CFEC
:100A100008958091CF068823D9F38091E80080FF64
:100A2000F8CF8091E8008E77ECCF982F9093E90073
:100A3000242F762F50E0891731F07091EC0020912F
:100A4000ED005091F00021FD07C09F5F973071F7D6
:100A50008093E90081E008953091EB003E7F309370
:100A6000EB003091ED003D7F3093ED003091EB00D5
:100A700031603093EB007093EC002093ED005093C5
:100A8000F0002091EE0027FDE0CF80E00895B0E077
:100A9000A0E0EDE4F5E00C942228C8EDD0E08881D8
:100AA0008F7E8883E7EDF0E080818160808384E041
:100AB00082BF81E08093AA0688818E7F888302EEC0
:100AC00010E0F80110821092DA0081EEC82ED12CCD
:100AD000F601108288818F77888388818068888377
:100AE00088818F7D888319BC1092CF061092D00622
:100AF0001092CE061092CD0690EEE92EF12CF70161
:100B000080818B7F808388818160888342E060E080
:100B100080E00E941505F60180818E7F8083F801B8
:100B2000808181608083808188608083F7018081FB
:100B30008E7F8083888180618883CDB7DEB7E8E0CF
:100B40000C943E28FC018091D7069091D806861718
:100B50009707A0F06115710529F49091E8009E7740
:100B60009093E80090E06115710551F4911108C06F
:100B70008091E80082FF34C080E00895BC01F2CF8C
:100B80008091CF068823C1F18530C1F18091E800C2
:100B900083FD30C08091E80082FDEACF8091E800BB
:100BA00080FFE1CF8091F3002091F200382F611592
:100BB000710519F02830310558F091E028303105E1
:100BC00009F090E02091E8002E772093E800CBCF49
:100BD00081918093F100615071092F5F3F4FE7CF02
:100BE0008091CF06882341F0853041F08091E80064
:100BF00083FFBECF81E0089582E0089583E00895E9
:100C00000895089508958091AC06089520911C01DF
:100C10002223C9F02091A50627FF15C0E62FE695EF
:100C2000E695E695EE31D8F4E80FF92FF11D6770DF
:100C300021E030E001C0220F6A95EAF72095828119
:100C4000282322830895FC0132960896219162138D
:100C500003C0DF0111971C92E817F907B9F708954F
:100C600020911C012223C1F02091A50627FF14C06A
:100C7000E62FE695E695E695EE31F8F4E80FF92FC4
:100C8000F11D677021E030E001C0220F6A95EAF79C
:100C90008281822B82830895FC0132962FEF30E00F
:100CA0004191641751F02F3F19F4411101C0232FD6
:100CB0003F5F3630A9F72F3F09F40895820F911D49
:100CC00027FD9A95FC016283089520919E0630913C
:100CD0009F062817390771F090939F0680939E0610
:100CE000E0919C06F0919D06309721F00084F185FB
:100CF000E02D0995089520919A0630919B062817BA
:100D0000390771F090939B0680939A06E0919C06B8
:100D1000F0919D06309721F00680F781E02D09952E
:100D20000895E0919C06F0919D06309729F001907E
:100D3000F081E02D0995089580E00895FA01811170
:100D400001C0FB0109950895EDEDF6E0248130E145
:100D5000231B08F420E024838091DC0681608093CB
:100D6000DC060895EDEDF6E0248130E1230F08F470
:100D70002FEF24838091DC0681608093DC06089548
:100D8000EDEDF6E0438120E1421B08F440E0818173
:100D9000628190E00E946C040895EDEDF6E04381DD
:100DA00020E1420F08F44FEF8181628190E00E94C0
:100DB0006C040895EDEDF6E0628120E1621B08F419
:100DC00060E08181438190E00E946C040895EDED24
:100DD000F6E0628120E1620F08F46FEF81814381C8
:100DE00090E00E946C040895EDEDF6E0818143816E
:100DF00062818850990B0E946C040895EDEDF6E035
:100E0000818190E04381628108960E946C0408957C
:100E10008091DD0686958695815009F482E00E94D6
:100E2000530408958091DD06869586958F5F833003
:100E300008F081E00E94530408950E94DC0C08959C
:100E40008091E306982F9E7F61F481708260809389
:100E5000E3068091E606873918F086E98093E60676
:100E600008958031B0F381708E60F1CFAF92BF9260
:100E7000CF92DF92FF920F931F93CF93DF93362F82
:100E8000472FE82FF0E0E25DFD4F71110FC0E491B4
:100E90008E2F2E2F6E2F722FDF91CF911F910F91DA
:100EA000FF90DF90CF90BF90AF900895C72FD0E014
:100EB0002491F22E022F10E056E0659FC00111240C
:100EC000EFEFF0E0BF010E940428832F90E0880F2D
:100ED000991F35E5369FD001379FB00D11248A1B2D
:100EE0009B0B982F990F980F6F01CC1ADD0AC09EAB
:100EF000D001C19EB00DD09EB00D11248B2F499F03
:100F0000A0011124452F55276F01C41AD50AC09E90
:100F1000A001C19E500DD09E500D11245F01A91A51
:100F2000B108AC9E6001AD9ED00CBC9ED00C1124CB
:100F3000CD2CDD24EC19FD09E09FE001E19FD00DEF
:100F4000F09FD00D1124ED2F62307105A1F050F407
:100F50006115710509F49ECF6130710581F0EB2FA9
:100F6000852F98CF6430710569F080F06630710587
:100F700009F490CFF4CFE22F2B2F8D2F8BCFE22FC0
:100F8000252F88CFEB2F822F2D2F84CF2B2F8F2D26
:100F9000E52F80CFCF93DF93762FE901682F842F41
:100FA0000E943607798368838A83DF91CF91089501
:100FB00080E00895F894E82FE295EF70F0E031A119
:100FC000282F2F7081E090E001C0880F2A95EAF762
:100FD000982F9095932391A392A1892B82A3789423
:100FE00008959091A50692FF06C0282F28712830F9
:100FF000F9F4877F846093FF06C0282F2871283179
:10100000F1F4877E84612091A60620FF06C0382F68
:1010100038713830D9F4877F816021FF06C0282FCE
:1010200028712831D1F4877E816194FD877E0895EF
:10103000282F24712430F9F68B7F8860DCCF282F8D
:101040002471243101F78B7E8861DDCF382F317117
:10105000313019F78E7F8860E0CF282F2171213140
:1010600021F78E7E8861E1CFCF93DF93EC01823848
:101070009105A9F1D8F58133910509F496C048F599
:101080008932910509F48AC08A9709F495C0C1157F
:1010900022E5D20708F0B6C0C11531E5D30708F044
:1010A00026C1C83ED10508F09CC0C03ED10560F500
:1010B000C83AD10508F087C0C53AD10508F0EFC09D
:1010C000C130D10509F12097F9F0C430D105E0F421
:1010D00040C08533910509F45AC0C997C1F6809183
:1010E000A506837089F0C0EED0E00EC0833E910566
:1010F00099F170F4803E910501F1823E910539F637
:101100008091A50682FD21C0CE01DF91CF91089587
:10111000863E910561F1873E910571F1843E91050E
:1011200009F0B5CF8091A60681FFEECF8091A5068C
:10113000C7EED0E084FD0DC0E7CF8091A50680FD0D
:1011400007C19091A60690FFDFCFC3EED0E084FFE9
:10115000DBCFD0E0C0E0D8CF8091A50682FDFBC0F8
:101160009091A60690FDBFCF84FFCECFF2CF8091A5
:10117000A50683FDDDCFC8CF8091A50683FDEEC017
:101180009091A60691FFF0CFC4EED0E0BDCF809144
:10119000A50685FFB9CFC9E2D0E0B6CF8091A506FC
:1011A00085FFB2CFC5E3D0E0AFCF8091A50686FF23
:1011B000ABCFCAE2D0E0A8CF8091A50686FFA4CF2E
:1011C000C1E3D0E0A1CFCF3BD10518F6C85AD0E09B
:1011D000CC0FDD1FC85CDE4F0990D881C02DD464D0
:1011E00093CFC11540E5D40708F064C0C11580E471
:1011F000D80708F05CC0CE019A9581159F4108F48C
:1012000083CFA7CFC11536E5D30718F5C11545E53E
:10121000D40708F084C0C11584E5D80708F07AC067
:101220009C2F969596959E0123703327C115D34523
:1012300008F462C0C1E0D0E002C0CC0FDD1F2A95E7
:10124000E2F730E2939FC0011124C82BD92BDA6852
:101250005BCFC1158AE5D80778F4C11599E5D907A0
:1012600008F068C0C11528E5D20708F472CFDC2F5A
:10127000CC27C06FD06A48CFCE01905681159042DE
:1012800008F067CF8D2F8F710E94F10790E0982FA3
:10129000882788279F719C012C2BE90149C0C55ADA
:1012A000D0E0CB5CDE4FC881D0E0D0642DCFDF70C2
:1012B000D06A2ACFCE01E4E096958795EA95E1F7CA
:1012C00083702C2F26952695237040E2249F900151
:1012D0001124382B8C2F8370C1E0D0E002C0CC0FDA
:1012E000DD1F8A95E2F7C22BD32BDC680DCFDC2FF4
:1012F000CC27C16FD06A08CFC1E0D0E002C0CC0FCC
:10130000DD1F2A95E2F720E2929FC0011124C82B2D
:10131000D92BEBCFDC2FCC27C46FD06AF5CE8C2F26
:101320000E94F107C82FD0E0DC2FCC27CC27DF713B
:10133000D062EACE8C2F8F700E94F10734E0D695F0
:10134000C7953A95E1F7CF709C2FEC01D069DCCEC0
:10135000C9E3D0E0D9CEC2EED0E0D6CEC6EED0E022
:10136000D3CE80914803811110924803089580954F
:101370009091470398239093470308958091240305
:101380009091F302981301C008958F5F8770FACF90
:10139000292F953078F58F3068F590E03FE0239F56
:1013A000800D911D1124682F677023E09695879515
:1013B0002A95E1F7FC01EE0FFF1FE80FF91FE1533B
:1013C000FD4F50E040E080E0219130E0062E02C069
:1013D000369527950A94E2F721703327042E01C031
:1013E000220F0A94EAF7822B4F5F5F4F433051057B
:1013F00059F7089580E00895292F953098F58F309A
:1014000088F590E03FE0239F800D911D1124282F47
:10141000277041E001C0440F2A95EAF723E0969532
:1014200087952A95E1F7FC01EE0FFF1FE80FF91FE2
:10143000E153FD4F30E020E070E05191DF01119762
:10144000CB01022E02C0969587950A94E2F781702F
:1014500081958527842385278C932F5F3F4F2330E9
:10146000310559F70895EDE1F1E08083618324E6C9
:1014700030E042E050E0BF0180E60E94E32708959B
:101480008093A7067093A9066093A8068091CF0663
:101490008430F9F48093E9008FEF9091E800815057
:1014A00095FD06C095ED9A95F1F700008111F5CFF5
:1014B0008091E80085FF0DC050E040E063E070E0FF
:1014C00087EA96E00E94CC048091E8008E778093B2
:1014D000E8000895BC0184E00E94400A0895BC0120
:1014E00083E00E94400A0895CF93DF93EC0180913E
:1014F0001C018823B1F18091A50687FF32C060E20C
:1015000084E08093E9008FEF9091E800815095FD91
:1015100006C095ED9A95F1F700008111F5CF809105
:10152000E80085FF1BC080911C0170E050E040E0A6
:10153000811104C050E040E068E070E0CE010E94FC
:10154000CC048091E8008E778093E80080E2FE0171
:10155000ADEAB6E001900D928A95E1F7DF91CF9167
:10156000089568E081E0CDCF81E08093E00080E2E3
:101570008093D8001092C9008FE19EE40197F1F7A3
:1015800000C0000087E090EBDC018093E9069093B7
:10159000EA06A093EB06B093EC0688E19CE00FB658
:1015A000F894A895809360000FBE90936000FFCFE1
:1015B0008091E30680FD0AC0E9E7F3E01182108222
:1015C0001282339653E0EB38F507C1F76A9A3EB1C1
:1015D0003B7F2EB124604FB7F89489E793E0FC017C
:1015E0005191CF0168E02EB9000000C057FF3EB90D
:1015F000550F000000C000C000C03EB900C06A9591
:1016000091F7F3E08B389F0751F74FBF8FE594E0D8
:101610000197F1F700C000000895CF93DF93CFE763
:10162000D2E060E0CE010E947C2A2196C11584E0C0
:10163000D807B9F7DF91CF9108951F93CF93DF9328
:10164000122F8430E0F46530D0F44F30C0F4C42F52
:10165000D0E0CC0FDD1F9EE1699FC00DD11D11248C
:1016600096E9899FC00DD11D1124632FCE01879665
:101670000E947C2A612FCE0188960E947C2ADF91ED
:10168000CF911F910895AF92BF92CF92DF92EF92C8
:10169000FF921F93CF93DF938EE3C82E85E0D82E61
:1016A000D0E07601C0E014C0F50125913491412FBE
:1016B0006C2F8D2F0E941D0B82E0A80EB11C1F5FA6
:1016C0001F3091F78EE1E80EF11CCF5FC53019F0A5
:1016D000570110E0E9CFDF5F86E9C80ED11CD43096
:1016E00001F7DF91CF911F91FF90EF90DF90CF90A6
:1016F000BF90AF900895CF93C82F6FEF811162E232
:1017000083E290E00E947C2A6FEFC11167E084E2DF
:1017100090E00E947C2A6FEFC11165E285E290E0C3
:101720000E947C2ACF91089580E00E947B0B60E0AC
:1017300086E290E00E947C2A0E94430B0E940D0BDF
:1017400081E00E947B0B0895CF93C92F682F84E01E
:1017500090E00E947C2A6C2F82E290E00E947C2A1A
:10176000CF9108950F931F93CF93DF93843030F57B
:10177000653020F54F3010F5C42FD0E0CC0FDD1FC1
:101780002EE1629FC00DD11D112436E9839FC00D4B
:10179000D11D1124CE0187960E94582A082F10E0EF
:1017A000102F0027CE0188960E94582A9801282BD6
:1017B000C901DF91CF911F910F91089590E080E0D2
:1017C000F8CF462F843040F4753030F46F3020F479
:1017D000672F0E94B20B089590E080E00895CF92A9
:1017E000DF92FF920F931F93CF93DF936C010091D1
:1017F000E80680914903082BC7E0D0E010E0FC2EFA
:10180000C8010C2E02C0959587950A94E2F780FDD9
:101810000CC02197A0F7F12C8F2DDF91CF911F9154
:101820000F91FF90DF90CF900895B6018C2F0E940A
:10183000E10B0E943408019761F3EECFCF93DF9361
:10184000EC010E94EF0BBE010E94E10B0E943408E4
:10185000DF91CF910895FC01808191810E941E0C3F
:1018600092959F70963091F058F4925F9F709230ED
:1018700058F4803F19F030F4883E30F481E0089548
:101880009A5FF4CF843FD1F380E00895883EB0F3AF
:10189000813FD1F7F3CF83E290E00E94582A823251
:1018A00089F484E290E00E94582A873059F485E256
:1018B00090E00E94582A91E0853209F090E0892F4B
:1018C0008170089580E0FCCFCF9384E090E00E9487
:1018D000582AC82F82E290E00E94582A982F8C2F15
:1018E000CF910895A4E0B0E0E8E7FCE00C9425284F
:1018F000F62E042F122F8434910508F059C0880F5A
:10190000991F880F991FBC01625D7B4F44E050E036
:10191000CE0101960E94F4288981282F237030E09F
:10192000869586954A81942F9295990F990F907C70
:10193000692F682B842F86958695782F7370EFE535
:10194000F1E02E9FC0012F9F900D3E9F900D11241E
:10195000855C9A4F680F791FFB01F082542F5295D6
:101960005F704B81E42FE295E07F6E2F652B542F43
:1019700052955F70752F7370680F791FFB0100839C
:1019800042954695469543705C81E52FEE0FEE0F2C
:101990006E2F642B752F7295769576957370860FE2
:1019A000971FFC011083265C3A4F81E0F901808388
:1019B0002496E5E00C944128FF920F931F93CF9358
:1019C000DF93182F062FF42ED0E0C0E02F2D402FEC
:1019D000612FCE010E94720C2196C434D105B1F75B
:1019E000CDB7DEB7E5E00C9441280F931F93CF935A
:1019F000DF9380913A05882309F441C065EC8EEFAE
:101A00000E94330A60E08DEF0E94330AD0E0C0E00C
:101A100004EB10E0CE01B8010E945B2880931D0109
:101A200082E1FE01E55CFA4FAEE1B1E001900D927A
:101A30008A95E1F724E630E043E150E06DE171E0A2
:101A400080E60E94E327892BD1F46296C63581E0B7
:101A5000D807E1F482EA80931D0189E0E1E9F6E02C
:101A6000AEE1B1E001900D928A95E1F724E630E015
:101A70004AE050E06DE171E080E60E94E3271092B9
:101A80003A05DF91CF911F910F910895C43BD10585
:101A900009F665EC8EEF0E94330A61E08DEF0E943B
:101AA000330AB8CFA4E0B0E0E8E5FDE00C942028CC
:101AB0000E94402765EC8EEF0E94330A64E08DEFB0
:101AC0000E94330A61E080E00E94330A6FEF81E0F8
:101AD0000E94330A67E782E00E94330A8FE39CE9A1
:101AE0000197F1F700C000000EE214E02EE3E22EB1
:101AF00025E0F22E3FE5C32EDD24D394BB24BA9417
:101B0000AA24A39444E050E0B801CE0101960E94BB
:101B1000F4288981282F237030E0869586954A81A4
:101B2000942F9295990F990F907C692F682B842F91
:101B300086958695782F73702C9DC0012D9D900DF4
:101B40003C9D900D112486529C4F680F791FFB011C
:101B5000B082542F52955F704B81E42FE295E07F65
:101B60006E2F652B542F52955F70752F7370680F11
:101B7000791FFB01B08242954695469543705C8182
:101B8000E52FEE0FEE0F6E2F642B752F7295769565
:101B900076957370860F971FFC01B082275C3A4FD1
:101BA000F901A0820C5F1F4FE016F10609F0AACFE1
:101BB00065EC8EEF0E94330A62E08DEF0E94330ADB
:101BC0009AEDE92E93E0F92E10E0F70161917F0183
:101BD000812F0E94330A1F5F143BB9F765EC8EEF2B
:101BE0000E94330A63E08DEF0E94330A8EE8E82EEC
:101BF00084E0F82E10E0F70161917F01812F0E94AF
:101C0000330A1F5F1B3AB9F7109239052496EAE0B0
:101C10000C943C28B0E0A0E0E0E1FEE00C941E282B
:101C20008091D2039091D303A091D403B091D503B6
:101C30002FB7F8948090A1069090A206A090A306DA
:101C4000B090A4062FBF75016401C81AD90AEA0A28
:101C5000FB0A2FB7F8944091A1065091A20660911B
:101C6000A3067091A4062FBF4093D2035093D303D1
:101C70006093D4037093D5031091A903E9EAF3E0CC
:101C8000C12FD0E00197AF4FBF4F88199909AA091A
:101C9000BB091D131BC0C093A9038091DD06182F3B
:101CA000137019F0182F16951695909131019130F7
:101CB00071F19923F1F0923009F4EEC0933009F4F8
:101CC000F4C0CDB7DEB7ECE00C943A28218D328D0C
:101CD0004901B12CA12C88159905AA05BB0520F452
:101CE000C150DF5F3296D5CF2C0D3D1D328F218F35
:101CF000F8CF109219014093D6035093D703609305
:101D0000D8037093D90381E080933101DACF9091A9
:101D10001801191323C083702091170130E091E05E
:101D20008217130609F490E0892F817080931B01BC
:101D30008091E20690911A01981739F080931A0168
:101D400040E060E080E00E941D07113099F011230F
:101D500039F0123009F459C080E02AC081E0E5CFA3
:101D600080911B01882321F140E060E080E00E9427
:101D70001D07F2CFC09119018EE0C89FC02D11241C
:101D80000EE00C0FF02E053410F054E4F52E6091A7
:101D9000DE067091DF068091E0060E943607E62E8F
:101DA000D72EC82ED0E0CF1500F181E00434A0F684
:101DB000909119019F5F90931901811169C082E090
:101DC0008093310180911B01811162C0112309F4BC
:101DD0006AC00E94910681FF74CF2FEF4FEF6FEF23
:101DE0008EE190E00E94720C6CCFFE01EB5AFD4F29
:101DF000808190911A01892331F02C2D4E2D6D2D6B
:101E0000CE010E94720C2196CECFC09119018EE0B6
:101E1000C89FC02D11240EE00C0FE02E053410F0E9
:101E200044E4E42ED090DF06C090E0062091E10665
:101E300030E4F32E3F2D329F312D1124F32ED0E0CC
:101E4000CE1508F0B2CFFE01EB5AFD4F8081909184
:101E50001A018923D9F0FE01EE0FFF1FE353FE4F55
:101E60006081F69EB001112495E0759567959A956D
:101E7000E1F78091DE06680F7D2D8C2D0E943607DC
:101E8000462F282F672FCE010E94720C2196D8CFA3
:101E9000112309F416CF9DCF1093180183708093FE
:101EA00017010E94F50C83E02FCF8091DC06882378
:101EB00051F046E050E06CE170E08DED96E00E945C
:101EC0006C2A1092DC064091D6035091D7036091A2
:101ED000D8037091D9032FB7F8948091A1069091FF
:101EE000A206A091A306B091A4062FBF841B950B58
:101EF000A60BB70B4097A105B10508F4E2CE1092EE
:101F00003101DFCEEDEDF6E089E080838091320192
:101F100090913301A091340181839283A38380E562
:101F200084838FEF858346E050E06CE170E0CF0161
:101F30000E946C2A1092DC060895B0E0A0E0E3EA6B
:101F4000FFE00C941A28FC016280448081E08483C5
:101F5000EEE2F3E07490EDEAF3E0E491CBE8D3E055
:101F600039E7E32E33E0F32E49EAC42E43E0D42EC2
:101F700052E0A52EBB24B39488248A94912C552436
:101F80005A94E7190E2F10E082E0861530F0809108
:101F9000E40688838091E5068983411019C01B827D
:101FA0001A824A81473908F046E997016981888198
:101FB0000E94CA07259683E0E80EF11CCC16DD06C8
:101FC00019F70E94D80ACDB7DEB7E0E10C943628A5
:101FD0008B818823E9F081508B83859DC00111247A
:101FE0006C8170E00E940428FB01FF27E25DFC4F3A
:101FF0008491E82FE719E59DC0011124B8010E94E2
:1020000004288091E606689FB00111247A83C9CF25
:102010000E94E4282091E606269521582A9DA001D9
:102020002B9D500D1124452F5527841795070CF033
:10203000B8CF82E0861588F40E94E428B4010E949B
:102040005B2888830E94E4282091E5062695622F6C
:1020500070E00E945B28280F29831A828091E6068F
:10206000893C20F088EC8C838B839BCF8431D8F71C
:1020700084E1F9CFCF92DF92EF92FF926B017C0166
:102080000E942007B701A60188E090E00E948E2AF6
:10209000FF90EF90DF90CF900895A3E0B0E0E3E5EC
:1020A000F0E10C942428F82E062F142FE22E8091B4
:1020B000E30680FF3AC0E82FE695F0E0E658FE4FD1
:1020C0009081909377038E7F8230E9F4473908F04E
:1020D00046E99E012F5F3F4F602F8F2D0E94CA0758
:1020E0008091E30680FF0FC08B8199812A81E9E707
:1020F000F3E0218390838283339633E0EB38F30758
:10210000C1F70E94D80AF092E4060093E506109306
:10211000E606EE2051F06091E3067091E4068091AE
:10212000E5069091E6060E943A102396E6E00C94AC
:102130004028E3EEF6E0438128E0421B08F440E04B
:1021400021E0628181810E944D100895E3EEF6E066
:10215000438128E0420F08F44FEF21E06281818142
:102160000E944D100895E3EEF6E0628128E0621BC4
:1021700008F460E021E0438181810E944D100895C0
:10218000E3EEF6E0628128E0620F08F46FEF21E0F1
:10219000438181810E944D100895E3EEF6E0818134
:1021A00021E04381628188500E944D100895E3EE42
:1021B000F6E0818121E043816281885F0E944D10B9
:1021C00008958091E706882319F081508093E706EF
:1021D0006091E3067091E4068091E5069091E60631
:1021E0000E943A1008958091E706833018F48F5FBB
:1021F0008093E7066091E3067091E4068091E5061E
:102200009091E6060E943A100895E3EEF6E083E02E
:1022100080838EED81838FEF828386E983831482AE
:1022200060817181828193810E943A10089568EEE5
:102230007EEF90E080E00E949A2A60E082E090E0E9
:102240000E947C2A60E083E090E00E947C2A109249
:10225000490360E084E090E00E947C2A64E082E22E
:1022600090E00E947C2A60E085E090E00E947C2A59
:1022700060E086E090E00E947C2A6FEF87E090E0CB
:102280000E947C2A40E050E0BA0188E090E00E9481
:102290008E2A60E08DE090E00E947C2A40E050E0D1
:1022A000BA0188E190E00E948E2A60E087E190E028
:1022B0000E947C2A40E050E0BA018CE190E00E944C
:1022C0008E2A70E060E080E290E00E949A2A40E06E
:1022D00050E0BA0188E190E00E948E2A80E00E94DE
:1022E0007B0B0E94940B40E050E0BA018FE090E03D
:1022F0000E948E2A40E050E0BA0183E190E00E9403
:102300008E2A08958091470390914603892B8093EC
:10231000AE02909148039923A1F0892B8093AE02DD
:1023200080911C018823E1F18091A50687FF38C0C8
:102330008EE1E0EBF2E090E08150A0F591110E9477
:10234000B10940E250E066E273E08EEA92E00E945A
:10235000322A892B21F180E2EEEAF2E0A6E2B3E034
:1023600001900D928A95E1F7E0919C06F0919D060F
:102370003097A9F080911C01882359F08091A5061F
:1023800087FF07C08091AE028093AF0286E0809302
:10239000AE020280F381E02D8EEA92E00995089565
:1023A00086E0C7CF2191222339F29F5FC5CF90E00D
:1023B00080E00E947B0690E080E00E94650610921B
:1023C00046030E94821108958093E8060E94D71167
:1023D00008958091E806982F9670963021F48860D1
:1023E0000E94E4110895877FFBCF21E030E001C017
:1023F000220F8A95EAF720958091E80682230E94B1
:10240000E4110895909125038095892380932503F5
:10241000282F277091F4282F082E000C330B9217C9
:10242000130659F09091A60692FF07C085958595F1
:1024300085950E94F5111092250308959091A606A6
:1024400092FB222720F9281769F080FB92F99093DC
:10245000A6068091A5069091A6060E94A40B82E094
:102460000E940212089521E030E001C0220F8A95F7
:10247000EAF78091E806822B0E94E4110895809388
:1024800049030E94D71108951092470380911C01BF
:10249000E0EBF2E0882361F08091A50687FF08C099
:1024A0008EE1DF011D928A95E9F70E94D711089508
:1024B00086E0F7CFAAE2B0E0E0E6F2E10C9427284C
:1024C00081ED96E02091F100DC012D93CD01B6E085
:1024D000893D9B07B9F78091D206833009F472C019
:1024E000B8F4813009F449C0823009F4B3C0809156
:1024F000E80083FF8BC28091D1069091D2069A307A
:1025000008F084C2E92FF0E0EB5FF44D0C946F28E3
:102510008A3009F48EC08B3009F471C0893039F7E4
:102520008091D106813219F78091D5069091D60617
:10253000009711F00297D9F68091E800877F809389
:10254000E8008091E80082FF38C09091F30080910C
:10255000F200029731F48091F100813011F0863061
:1025600021F48091F1008093AC068091E8008B7794
:102570008093E8000E94F604BACF8091D106813A98
:1025800009F0B5CF8091E800877F8093E8008091C3
:10259000D5069091D606892B61F460E28DEA96E02B
:1025A00070E00E94A2058091E8008B778093E8009C
:1025B0009ECF60E090E080E0F3CF8091CF06811164
:1025C000C0CF95CF8091D106813A09F090CF80910C
:1025D000D5069091D606892B09F089CF8091E80025
:1025E000877F8093E8008091E80080FFFCCF809196
:1025F0001C018093F1008091E8008E77B9CF809123
:10260000D106813209F073CF8091D5069091D6061C
:10261000892B09F06CCF8091E800877F8093E800D8
:102620000E94F6048091D30680931C010E944412FC
:102630005ECF8091D106813209F059CF8091E800B8
:10264000877F8093E8000E94F6048091D4068093EF
:10265000AB064DCF8091D106813A09F048CF8091E9
:10266000E800877F8093E8008091E80080FFFCCF3E
:102670008091AB06BECF803899F0823809F0C6C190
:102680008091D5068F70873008F0C0C18093E90033
:102690008091EB0085FB882780F91092E90006C045
:1026A0008091CD069091CE06911182609091E800C4
:1026B000977F9093E8008093F1001092F100809151
:1026C000E8008E779FC1882309F48DC1823009F01C
:1026D0009DC18091D306811190C18091D5068F70E4
:1026E0002FEF280F263008F091C18093E900209148
:1026F000EB0020FF82C1933031F48091EB008062C7
:102700008093EB007AC19091EB0090619093EB0085
:1027100021E030E001C0220F8A95EAF72093EA0019
:102720001092EA008091EB008860EACF81116EC1BF
:102730001091D3061F778091E3008078812B8093DE
:10274000E3008091E800877F8093E8000E94F60410
:102750008091E80080FFFCCF8091E3008068809347
:10276000E30082E0111183E08093CF064FC18058CF
:10277000823008F04BC12091D3063091D4062C3D15
:10278000E3E03E07A1F583E08A838AE289834FB7BD
:10279000F894DE01139620E03EE051E2E32FF0E0F2
:1027A00050935700E49120FF03C0E295EF703F5F24
:1027B000EF708E2F90E0EA30C0F0C7968D939D9316
:1027C0002F5F243159F74FBF8091E800877F8093B6
:1027D000E8006AE270E0CE0101960E94A2058091B5
:1027E000E8008B778093E80011C1C096E7CF809115
:1027F000D5069091D606432F55274330510509F44D
:102800004AC078F54130510509F47AC08BE590E073
:10281000E6E9F7E04230510509F0F8C02091E80000
:10282000277F2093E8002091D7063091D8068217A1
:10283000930708F49C0140E02115310509F065C0BB
:10284000411163C08091E80082FDC9CF8091CF061D
:10285000882329F2853019F28091E80083FFF2CFB6
:10286000BECF4132510509F43CC04232510509F056
:10287000CDC08330910508F0C9C0FC01EE0FFF1FE9
:10288000E456FD4F0190F081E02D87569D4FDC010D
:102890008C9190E01AC0332721303105D1F02115F9
:1028A000310561F02230310509F0B0C0E3E0F8E015
:1028B000E4918E2F90E0E3E0F8E007C0EDE2F8E06D
:1028C000E4918E2F90E0EDE2F8E0009709F49EC0CD
:1028D000A5CFE3E1F8E0E4918E2F90E0E3E1F8E0AA
:1028E000F4CF8330910508F091C0880F991FFC0147
:1028F000EE55FD4F0190F081E02D89E090E08ECF04
:1029000082E190E0E1EFF7E089CF8091CF06882364
:1029100009F465CF853009F462CF8091E80083FD2A
:102920005ECF8091E80082FD8DCF8091E80080FF2E
:1029300083CF9091F3008091F2002115310519F0B9
:102940008830910550F041E0089709F040E080910F
:10295000E8008E778093E8006FCF44914093F100B8
:102960003196215031090196E8CF803809F04EC0E8
:102970008091E800877F8093E8008091D006809363
:10298000F1009DCE811142C01091D3061230F0F5B6
:102990008091E800877F8093E8001093D0060E9422
:1029A000F604112311F084E005C08091E30087FD57
:1029B000FACF81E08093CF0642E061EC81E00E9493
:1029C000150542E261EC84E00E94150542E261ECEB
:1029D00082E00E94150542E260EC83E00E9415054A
:1029E0008091CF0613C08091D306813079F481E0C5
:1029F000933009F080E08093CE061092E900809138
:102A0000E800877F8093E8000E94F6048091E80048
:102A100083FF0AC08091E800877F8093E80080915F
:102A2000EB0080628093EB00AA96E3E00C944328CD
:102A30000E9444122FEF84E39CE02150804090409C
:102A4000E1F700C0000088E19CE00FB6F894A8957B
:102A5000809360000FBE90936000FFCF882321F029
:102A60000E94B7090E9482110895882339F090913D
:102A70004703982B909347030E948211089588235F
:102A800051F19CEF980F913A40F4682F8EEA92E052
:102A90000E9406060E948211089590E2980F9830D5
:102AA00050F4877091E001C0990F8A95EAF7892F59
:102AB0000E94B709EFCF9BE5980F933028F490E080
:102AC00080E00E947B060895885A873120F490E0C8
:102AD00080E00E9465060895CF93C82F8823D9F11E
:102AE0008CEF8C0F813AC8F580911C01882311F17D
:102AF0008091A50687FF1EC0EC2FE695E695E6952A
:102B0000F0E0E255FD4F828190E04C2F477021E0CC
:102B100030E002C0220F331F4A95E2F7822393234D
:102B2000892B91F06C2F8EEA92E00E9406060E949B
:102B300082110AC0E0EBF2E086EB92E02191C2172D
:102B400089F38E179F07D1F76C2F8EEA92E00E94CF
:102B500030060E948211CF91089580E28C0F883058
:102B600068F4C77021E030E001C0220FCA95EAF78F
:102B700080914703822B80934703EBCFEBE5EC0F6B
:102B8000E33040F4F0E0EB5CFE4F808190E00E9487
:102B90007B06E1CFC85AC731F0F6EC2FF0E0EE0F1C
:102BA000FF1FE85CFE4F808191810E946506D3CFB4
:102BB0001F93CF93DF93182FD0E0C0E0893311F437
:102BC000C0E5D0E0812F0E946C15209739F4812F49
:102BD0000E943F15DF91CF911F9108958FE99FE0EB
:102BE0000197F1F700C000002197EFCF90E080E05F
:102BF0000E94662A883E9E4F19F40E944B0C08954D
:102C000080E008951F920F920FB60F9211242F9318
:102C10003F934F935F936F937F938F939F93AF9364
:102C2000BF93CF93DF93EF93FF93D091E900DF70D1
:102C30008091EC00C82FC17080FDC0E81092E900BF
:102C40008091F000877F8093F00078940E945A1260
:102C50001092E9008091F00088608093F000CD2B05
:102C6000CF70C093E900FF91EF91DF91CF91BF91B9
:102C7000AF919F918F917F916F915F914F913F9114
:102C80002F910F900FBE0F901F9018951F920F92CB
:102C90000FB60F9211242F933F934F935F936F932F
:102CA0007F938F939F93AF93BF93EF93FF93809105
:102CB000E10082FF09C08091E20082FF05C080919F
:102CC000E1008B7F8093E1008091DA0080FF24C0D7
:102CD0008091D80080FF20C08091DA008E7F8093A1
:102CE000DA008091D90080FF9DC080E189BD82E13A
:102CF00089BD09B400FEFDCF81E08093CF068091AD
:102D0000AA06811109C00E947C040E944705809197
:102D1000E20084608093E2008091E10080FF17C0B0
:102D20008091E20080FF13C08091E2008E7F80934B
:102D3000E2008091E20080618093E2008091D800FF
:102D400080628093D80019BC85E08093CF06809183
:102D5000E10084FF2BC08091E20084FF27C080E166
:102D600089BD82E189BD89B5982F917080FFFBCF25
:102D70008091D8008F7D8093D8008091E1008F7E74
:102D80008093E1008091E2008F7E8093E200809149
:102D9000E20081608093E2008091D006882309F4EC
:102DA00047C084E08093CF068091CF068091E100F8
:102DB00083FF27C08091E20083FF23C08091E10060
:102DC000877F8093E10082E08093CF061092D00647
:102DD0008091E1008E7F8093E1008091E2008E7F00
:102DE0008093E2008091E20080618093E20042E003
:102DF00060E080E00E9415058091F000886080937B
:102E0000F000FF91EF91BF91AF919F918F917F91D2
:102E10006F915F914F913F912F910F900FBE0F9047
:102E20001F90189519BC1092CF061092AA0674CF65
:102E30008091E30087FD93E09093CF06B5CF78941F
:102E40001F921FB61F9211248F939F93AF93BF932E
:102E50008091A1069091A206A091A306B091A4062C
:102E60000196A11DB11D8093A1069093A206A09387
:102E7000A306B093A406BF91AF919F918F911F902D
:102E80001FBE1F9018959C014FB7F8948091A10622
:102E90009091A206A091A306B091A4064FBF821BF9
:102EA000930B08952FB7F8948091A1069091A206F4
:102EB000A091A306B091A4062FBF08950F931F936E
:102EC000CF93DF93C62FD42F022FFC01828188235A
:102ED000A9F06093DB060E9452179093DA06809364
:102EE000D906C77081E001C0880FCA95EAF70E9431
:102EF0003515DF91CF911F910F9108958091DB06D9
:102F0000681332C08091D9069091DA060E94431767
:102F1000883C910548F510E21D0FCD17B9F080E20D
:102F20008C0F883040F4C77081E001C0880FCA95CB
:102F3000EAF70E942E15183048F481E09D2F977013
:102F400001C0880F9A95EAF70E943515802F0E94DC
:102F5000D815183070F6D77081E001C0880FDA9567
:102F6000EAF70E942E15C5CFC77081E001C0880F17
:102F7000CA95EAF7F6CF9091E30690FF2CC09170C6
:102F800081112AC092609093E306662351F060910C
:102F9000E3067091E4068091E5069091E6060E94B2
:102FA0003A106091E306669570E041E050E086E1FA
:102FB00091E00E94252A892BB1F01092780381E0DC
:102FC0008093740320E04091E6066091E5068091CD
:102FD000E4060E944D100895883010F09E60D3CF13
:102FE000880F982BD0CF81E0809378030E945217EE
:102FF0009093720380937103E2CF8091E3068695EC
:10300000815009F487E061E00E94BB170895809128
:10301000E30686958F5F883008F081E061E00E94CA
:10302000BB1708958091E30680FF08C086958258FB
:103030008F77853018F40E940718089561E082E0C8
:103040000E94BB170895A5E0B0E0E9E2F8E10C9416
:1030500019288C01FC0183819481892B31F08081B6
:10306000918189238F3F09F0B7C52596E1E10C9442
:1030700035280E94EF0BF82E682F89819A810E94D3
:10308000FC0969817A818F2D0E94E10B7C01F80196
:103090008281882309F466C5970122513F4520317A
:1030A000310508F08CC58FEF93E00E94582A8111FA
:1030B00028C0FEEEEF0E5FE7852E52E0952EE11060
:1030C00032C01C821B82442443944AE0342E740193
:1030D0008FEFE81AF80AC4010E94582A89831A82DD
:1030E000882379F09FEF980F933058F58A834982AF
:1030F00092E0890E911CC7010E94582A8B8381118E
:1031000021C080912503877009F4AFCFF801828137
:10311000882309F4AACF8091A60682FFA6CF82E079
:103120000E940212A2CF811424E0920651F3C4013E
:103130000E94582A811101C0EA943FEF831A930A32
:10314000BECF4701FE0131967F01F7012081222386
:1031500009F4BDCF213009F047C0918182819130BF
:1031600031F4F2E0EF0EF11C0E94D81507C0923046
:1031700049F422E0E20EF11C0E946C153FEFE31AC5
:10318000F30AE3CF933031F432E0E30EF11C0E94F6
:103190003F15F4CF943021F08FEFE81AF80AEECF04
:1031A00092E0E90EF11C30E020E0B7016F5F7F4F45
:1031B000F70141818053990B8A30910550F02150DD
:1031C0003109E0F28FE99FE00197F1F700C00000BC
:1031D000F6CF329EF001339EF00D11249C012E0F8C
:1031E0003F1F842F7B01E1CFE22FF0E0E555FE4F3A
:1031F0005490822F86958695869590E0FC01E55641
:10320000FE4F64902770712C022E02C07594679453
:103210000A94E2F7E1E06E227724FC01E557FE4FC5
:10322000A490B12C022E02C0B594A7940A94E2F7A0
:10323000F1E0AF22BB24FC01E558FE4FC490D12C35
:1032400002C0D594C7942A95E2F721E0C222DD247A
:103250006114710419F081EE0E946C15A114B1047F
:1032600019F086EE0E946C15852D0E94D815A114C8
:10327000B10419F086EE0E943F156114710419F033
:1032800081EE0E943F15C114D10409F477CF8CE27E
:103290006BCF81E00E9433120E94E91132CF81E0AE
:1032A0000E94F511F9CF82E0FBCF95EFE9169CE57E
:1032B000F90609F465C008F45FC027E245EE66EE42
:1032C000F6EFEF16FCE5FF0609F475C4882309F450
:1032D00094C41092DB0623E0E2162DE5F20608F016
:1032E00056C03AEFE3163CE5F30630F4C7018250CE
:1032F0009C45449708F057C00E94640C9093A60622
:103300008093A506E1E1EE16ECE5FE0609F431C175
:1033100008F09FC029E0E2162CE5F20609F417C177
:1033200008F068C085E0E8168CE5F80609F403C1EA
:1033300008F051C0E3E0EE16ECE5FE0609F4F1C03A
:1033400008F0F5C08091A506816022E0E2162CE528
:10335000F20609F4E9C08091A5069091A6060E94A4
:10336000A40B0E944412CDCE27E245EE65EE23C4A5
:1033700026E241EE60EE1FC427E245EE64EE1BC478
:1033800026E241EE62EE17C428E241E0EFCF81E68B
:10339000E8168DE5F80609F4AFCF95EAE9169DE544
:1033A000F90609F4A9CF36E1E3163CE5F30609F086
:1033B000B4C4809147038A7A91E009F490E0909335
:1033C000CE0269E2811165E38EEA92E00E94300646
:1033D0000E94821196CE8091A506806237E0E316A6
:1033E0003CE5F30609F4A0C008F4ADC08091A50641
:1033F00080649AC08091A5068B7F9DE0E9169CE5CC
:10340000F90609F491C0B0F48091A5068E7FFBE027
:10341000EF16FCE5FF0609F487C08091A5068C60D5
:103420002CE0E2162CE5F20608F47EC08091A50699
:103430008D7F7AC08091A5068F7E3FE0E3163CE544
:10344000F30609F471C008F488C08091A5068F7D49
:103450006BC09DEFE9169CE5F90609F486C078F586
:10346000F5E1EF16FCE5FF0609F491C0A0F48091A8
:10347000A506837F33E1E3163CE5F30609F454C067
:1034800008F47BC00E9444129091A506892F97FBF7
:1034900087F9805849C09BEFE9169CE5F90609F4C5
:1034A0004EC008F05EC08091A6068160FAEFEF166C
:1034B000FCE5FF0609F04FCF8093A6064CCF21E034
:1034C000E2162DE5F20609F46EC0B8F48FEFE816A7
:1034D0008CE5F80609F457C08091A6068360E114D4
:1034E0009DE5F90648F38091A606982F9095917076
:1034F0008E7F892B90FB81F9DFCFE1E6EE16EDE5BB
:10350000FE0609F456C0F5EAEF16FDE5FF0609F4DC
:1035100057C022E0E2162DE5F20609F01CCF60E06C
:1035200043C08091A50682608093A50614CF809148
:10353000A5068460F9CF8091A5068860F5CF8091BB
:10354000A6068260B9CF8091A5068061EDCF0E946A
:1035500044128091A5068068E7CF8091A506877FF9
:10356000E3CF8091A6068E7FA7CF8091A6068D7FA0
:10357000A3CF8091A5068F7BD7CF0E944412809164
:10358000A5068F77D1CF8091A6068C7F95CF8091AD
:10359000A50682FB992790F921E0922790FB82F9FA
:1035A00090FB83F9C1CF61E08EE090E00E947C2A1D
:1035B000D2CE9091A506892F8F7E94FF8061B4CFE3
:1035C0009091A506892F8E7F90FF8160ADCF80916D
:1035D000CE0269E2811165E38EEA92E00E9406065E
:1035E000F7CE81608093E30661E086950E94BB1769
:1035F00049C34DEF57E167E078E18D2D0E949E06AB
:1036000048E057E062E177E08D2D0E949E0679CD7B
:1036100047E058E16DEF77E18D2D0E949E0642E173
:1036200057E068E077E0F0CF4DEC50E167ED70E1F6
:103630008D2D0E949E0644EF56E06EEF76E0E4CFBB
:1036400047ED50E16DEC70E18D2D0E949E064EEF2E
:1036500056E064EF76E0D8CF43EB50E160EC70E1E8
:103660008D2D0E949E064AED56E067EE76E0CCCFA7
:1036700049E950E166EA70E18D2D0E949E0640EC1A
:1036800056E06DEC76E0C0CF46EA50E169E970E1C2
:103690008D2D0E949E064DEC56E060EC76E0B4CF96
:1036A00041EE50E163EF70E18D2D0E949E0644EAE9
:1036B00056E062EB76E0A8CF61E081E00E94BB17A4
:1036C00081E00E9453041DCD0E944412FFEF24E3C9
:1036D0003CE0F15020403040E1F700C000000E9483
:1036E000B40A8091A60682FB882780F991E0892799
:1036F0000E941E12F8018281E080F180882309F483
:1037000045C0C7010E94EF0BD82E682FC7010E9449
:10371000FC09B7018D2D0E94E10B0E9434087C0149
:10372000882EF801D280B580B2943FE0B322809118
:1037300025038770C1F0AD2CDD20B1F08F2D807F87
:10374000803421F080E28E0D883068F08091A606EA
:1037500082FF09C082E00E940212809125038770D7
:10376000AA24A3948111A12C9F2C92942FE0922241
:10377000FBE0F91508F479C0E92DF0E0E15FF44DC4
:103780000C946F2881E0B4CF80E0B2CFC7010E94D3
:10379000C809D82EBECF2F2D2F70C22E8F2D807F1F
:1037A00019F0C29490EFC922DD20B9F0CC2069F065
:1037B00080E28E0D883010F0811009C0809147039F
:1037C000C82AC09247030E9482118E2D4CC080915E
:1037D0004603C82AC0924603F6CF8E2D0E943F159D
:1037E000CC2009F442C080E28E0D883010F08110A8
:1037F00004C08C2D0E94B70906C0C0948091460376
:10380000C822C09246030E9482112FC03F2D3F70F4
:10381000C32E8F2D807F803219F0C29480EFC82292
:10382000882089F081E0881609F468C0DD2009F459
:1038300072C0BB2009F468C0F801858180FFC5CF44
:103840008F70858361C02091A60622FD35C0DD20E2
:1038500069F1CC2039F080914703C82AC092470310
:103860000E94821180E00E946C15292D2850330B94
:103870002430310510F40E949106AA2009F4F5CBFA
:103880008091250380FDF1CBF80112828595859505
:1038900085950E943312C8010E9423188091250348
:1038A0008595859585950E94F511DFCB80E00E9476
:1038B0003F15CC20D1F29DCFDD2099F090914803A7
:1038C000892F8C29B11003C00E943515CECFE1E0BD
:1038D000BE12FACF22FFC9CF981739F2809348035E
:1038E000C4CFB11006C00E94B1098C2D0E942E15C4
:1038F000BCCFF1E0BF1609F4B8CFF5CFDD2031F031
:1039000025E02B1508F4B1CF8C2DDECF34E03B152C
:1039100008F4ABCFEACFBB2041F3F9E38F1209C023
:103920002FEF37EE83E0215030408040E1F700C0B8
:1039300000008E2D0E943F1598CF8F2D869586957D
:10394000837061F0813009F090CFC7019370D1107E
:1039500002C090E080E00E94650687CFC7019370A7
:10396000D11002C090E080E00E947B067ECF8F2DB8
:10397000837091F5D11079CF4E2D429546954770C1
:10398000440F440F8E2D8F70042E01C0880F0A94AF
:10399000EAF72E2D2071E4FE07C02FE030E001C0D1
:1039A000220F4A95EAF720953F2D369536953370CC
:1039B000323069F050F440914903313029F0822BC4
:1039C00084230E943F1251CF842B822BFACF282BC5
:1039D000809149038227F5CF8695DD2011F08F2D48
:1039E0008170882309F441CF4E2D4295469547704A
:1039F000440F440F8E2D8F70042E01C0880F0A943F
:103A0000EAF72E2D2071E4FE07C02FE030E001C060
:103A1000220F4A95EAF720953F2D3695369533705B
:103A2000323069F050F44091E806313029F0822BB1
:103A300084230E94E41119CF842B822BFACF282BE8
:103A40008091E8068227F5CF9F2D9F70F92EDD200B
:103A500029F0892F0E9433128E2D36CF8E2D0E9491
:103A60002E158F2D0E94F51100CF8E2DE2EF8E16B0
:103A7000B1F1E81570F0F0EF8F16D1F021EF82165A
:103A800091F0DD2009F45EC0B1109FCE8F2D8F71B3
:103A90002AC033EF831651F194EF8912F2CF80914F
:103AA000A60682FD2FC08F2D8F71DD20D9F21BC09D
:103AB000DD2081F0E4E0EB1508F4D7CE2F2D2F7137
:103AC00081E090E001C0880F2A95EAF79091E8061E
:103AD0008927AFCFF5E0FB1508F4C7CEEFCF8F2DC8
:103AE0008F71D110BFCF0E943312BFCE80E0DD2096
:103AF00009F49FCF9F2D9F7181E001C0880F9A9597
:103B0000EAF797CFDD2099F02F2D2F71F22E822F1B
:103B10000E9433128091A60682FF07C038E0F39E10
:103B2000C00111248360809325038F2DDCCF81E0B9
:103B30000E94021281E08B1508F097CE82E00E946D
:103B4000021293CEBB2059F0893309F0F2CE9FEFD9
:103B5000E7EEF3E09150E040F040E1F7E8CE8F2D42
:103B60008F7180CFF0E1EF16FFE5FF0609F497CBE8
:103B700021E1E2162FE5F20609F495CB93EFE91661
:103B80009CE5F90609F4F4CB08F08FCBF8EDEF16BD
:103B9000FCE5FF0609F4E8CB29EDE2162CE5F20678
:103BA00009F4F2CB37EDE3163CE5F30609F08ECBD2
:103BB00026E241EE61EEC8010E945E17A2CA30E122
:103BC000E3163FE5F30609F464CB91E1E9169FE5BE
:103BD000F906A1F682E05ECB85E0DE011196019048
:103BE0000D928A95E1F7F801228189819A8121114C
:103BF00040CA0E94C809F82E44CAF6E1EF16FCE557
:103C0000FF0609F4E4CC809147038272D82E29EC98
:103C1000E2162CE5F20609F42BCD08F055C085EC30
:103C2000E8168CE5F80609F4FFCCD0F5E3ECEE16C7
:103C3000ECE5FE0609F4DDCC08F0EACC22ECE21655
:103C40002CE5F20609F056CD8091E30680FFC9CC41
:103C50008E7F8093E3066091E3067091E406809185
:103C6000E5069091E6060E943A10109278038FEFD5
:103C700090E7E2E081509040E040E1F700C00000B2
:103C80000E94D80A8091DD0691E089278093DD06A5
:103C9000109231018091DC0681608093DC0631CA8C
:103CA00037ECE3163CE5F30609F4D6CC08F4C8CCAF
:103CB00040EC50E163EB70E18D2D0E949E0647EED3
:103CC00056E06AED76E0A0CC9DECE9169CE5F9069D
:103CD00009F4F2CCA0F4FBECEF16FCE5FF0609F4C6
:103CE000DFCC08F4D1CC43EF50E161EE70E18D2DD3
:103CF0000E949E0642EB56E064EA76E085CC36ED03
:103D0000E3163CE5F30608F4FCC98DE5E816F80671
:103D100009F0F0CC0E941218F4C99AE5E9169DE565
:103D2000F90609F42FCD78F4E114FCE5FF0609F457
:103D3000CBCC2EEDE2162CE5F20609F0DBCC0E948E
:103D400017110E9418153CE5E3163DE5F30609F44A
:103D5000C8CC08F419CD97EAE9169DE5F90689F370
:103D6000C9CC1F93CF93DF938091F202807F09F03B
:103D700049C08091EF02882309F444C08091240354
:103D8000D091F3026091ED027091EE02A091F002E9
:103D9000B091F102C62FC72316E0D81799F190E031
:103DA000109711F0CF3F19F401968770F6CF189F46
:103DB0009001199F300D1124F901EC50FD4F418104
:103DC0004713F2CF40814613EFCF42814111ECCF30
:103DD000438154814A1B5B0B483C510528F7809175
:103DE000F2028F7080618093F202F901E750FD4F7B
:103DF00080818F70806180838DEE92E00E94231815
:103E00000E94BE09DF91CF911F910895A1E1B0E01A
:103E1000ECE0FFE10C9420288C0185E0F801DE0144
:103E20001D9601900D928A95E1F7F801E2808DEEE2
:103E3000A82E82E0B82E6091F0027091F102611517
:103E4000710509F426C19091ED024091EE02892F8F
:103E500084238F3F09F41DC120813181C380D48028
:103E6000F090EF02F601E61BF70BFF2009F4DCC02F
:103E70008091F202582F507FE83CF10508F09FC076
:103E800051116BC0FE2C431314C0921312C0E110E9
:103E900010C08F7080618093F202C5010E942318C8
:103EA0008091F202F80185838F2D6196EAE00C94EF
:103EB0003C28C114D10429F0822F83238F3F09F0BD
:103EC00003C180E0F82FF170DF2E80FF3CC08091AD
:103ED00024034091F30256E0841315C02D873E87DA
:103EE0008D859E850E941E0C292F22952F702230D1
:103EF000F0F0243018F59F70F1F0F8019581907F73
:103F0000D1F4D12C1EC090E0589FF001599FF00DC4
:103F10001124EC50FD4F6181361306C060812613D9
:103F200003C06281E6120FC001968770D5CF9F70E3
:103F300011F0882331F3805E883018F3C8010E94A5
:103F40002318FD2CB1CFEE2009F4AECF8091F20200
:103F500081608093F202F12CA7CF431306C0921325
:103F600004C0F801EE2009F479C0C8010E942B0CAE
:103F7000882309F1EE20F9F08091F202803270F08E
:103F80002091ED023091EE0238872F831986DB866F
:103F9000CA868C87CE0107960E94231886E0F80116
:103FA000ADEEB2E001900D928A95E1F70E94B11E4C
:103FB000FF24F39479CFC8010E942318F9CF51113F
:103FC0000AC08DEE92E00E94231886E0F50111925E
:103FD0008A95E9F7C0CF43130FC092130DC0E110CB
:103FE0000BC0F8018583C8010E94231886E0F50103
:103FF00011928A95E9F758CFC8010E942B0C8823AB
:10400000D1F2EE20C1F28091F202803238F220919A
:10401000ED023091EE023A8329831B82DD82CC824D
:104020008E83CE010196B8CFE83CF105F8F6FE2C60
:10403000EE2009F243131FC092131DC08091F202BB
:1040400080FD10C0982F907F69F0F8018583903F24
:1040500031F0982F907F905F8F70892B8583C801F6
:104060000E94231886E0F801ADEEB2E001900D92B7
:104070008A95E1F719CFC8010E942B0C81118ECFD0
:104080008091F20281608093F202C8010E9423189D
:104090000BCFEE2009F48FCFC8010E942B0CF82E15
:1040A000882309F488CF86E0F801ADEEB2E00190F4
:1040B0000D928A95E1F78091ED029091EE020E94B7
:1040C0001E0C0E94B11EF0CE81E08E25FBCEA7E132
:1040D000B0E0EDE6F0E20C9427284B8B5C8B6D8B07
:1040E0007E8B8F8B6111109246031A8A198A85E0A4
:1040F000FE017396DE011D9601900D928A95E1F7FF
:1041000086E0FE013D96DE01179601900D928A959C
:10411000E1F7CE0107960E94061F811112C086E0CA
:10412000FE013796DE01119601900D928A95E1F716
:104130008A859B85892B29F088859F8189238F3FDC
:1041400081F516E0809124039091F302891317C042
:104150006796E3E00C94432896E0929FD001939FEA
:10416000B00D1124AC50BD4FFE01319601900D925F
:104170009A95E1F78093F3020E94BE09E2CF819FF6
:10418000C00111248C509D4F0E94061F882301F30B
:104190008091240390E001968770992780932403EF
:1041A000D1CF2091F30230E0C901019687709927A1
:1041B000409124034817190679F60E944412109280
:1041C000F3021092240386E0EDEEF2E0DF011D928F
:1041D0008A95E9F7B6CF4F925F927F928F929F9226
:1041E000AF92BF92CF92DF92EF92FF920F931F9305
:1041F000CF93DF93CDB7DEB72A970FB6F894DEBF23
:104200000FBECDBF8E010F5F1F4F8AE0F8011192E4
:104210008A95E9F746E6E42E41E0F42ECC24C394D7
:10422000D12C88248394912C7AE7A72E71E0B72EA5
:10423000F70181917F018F3F09F44DC0F894E82F79
:10424000E295EF70F0E021A18F70A40102C0440F4D
:10425000551F8A95E2F7CA01922F982B91A392A13C
:104260008095892382A3789400C035E7432E31E0FE
:10427000532ED801B60160957095F20171902F010F
:104280008D919D91AD0142505109FFEF7F1609F4C8
:1042900082C0272D22952F7030E0F90120A130E057
:1042A000F72DFF7002C035952795FA95E2F720FDAE
:1042B00072C08C299D29FA0191838083A414B504CE
:1042C000E1F6F701319780818F3F11F00E94DA0704
:1042D000F0EAFA95F1F7CC0CDD1C25E7E21621E0B7
:1042E000F20609F0A5CF4AE050E0B80180E593E07E
:1042F0000E94322A6C01FF24F394892B09F4F12CDB
:10430000C114D10441F08AE0F801A0E5B3E00190C6
:104310000D928A95E1F710914D03112309F445C0E0
:104320000E94521720914B0330914C03AC01421B69
:10433000530B9A0190934C0380934B034F3F5105CD
:1043400009F060F5452B21F110924D0310924A03BC
:1043500040914E0350914F03CA010F96465A5F4F4A
:1043600060E070E0FC013F973191332331F0DF01D1
:1043700011972317B0F01C92612F8E179F07A1F79A
:104380000F964817590771F770934D0360934A03CE
:10439000CD28D1F40CC0862397238DCF2FEF30E0AA
:1043A000D3CF321B3C93712FE8CFCD2839F48091C5
:1043B0004A03882309F448C0111106C00E9452170D
:1043C00090934C0380934B0360914E0370914F0385
:1043D000E0904D03A0E5B3E047E653E088248394E2
:1043E000912C95E0792E0D911D91FA018191919179
:1043F000AF0108271927FB0130E020E06401022EFD
:1044000002C0CC0CDD1C0A94E2F75801AC20BD20A0
:10441000AB2841F0B080B11005C070828C259D257D
:10442000EE24E39431962F5F3F4F2F30310531F763
:10443000615F7F4FFA01329791838083F3E0AA3561
:10444000BF0789F6E0924D038F2D2A960FB6F89498
:10445000DEBF0FBECDBFDF91CF911F910F91FF90B7
:10446000EF90DF90CF90BF90AF909F908F907F9014
:104470005F904F9008951F921FB61F9211248F9343
:104480009F93AF93BF938091A006811113C0809139
:10449000A1069091A206A091A306B091A406419610
:1044A000A11DB11D8093A1069093A206A093A3061F
:1044B000B093A406BF91AF919F918F911F901FBEA3
:1044C0001F901895CDB7DEB7AA970FB6F894DEBF48
:1044D0000FBECDBF85B7806885BF85B7806885BFB3
:1044E00084B7877F84BF0FB6F894A8958091600049
:1044F000886180936000109260000FBE80E890E0B9
:104500000FB6F89480936100909361000FBE88ED20
:1045100097E09093A9028093A8020E947C040E94D5
:1045200047058091E20084608093E2007894809156
:10453000CF068823A1F01091E9001F709091EC0044
:10454000892F817090FD80E8182B1092E9008091EE
:10455000E80083FD0E945A121F701093E90082E068
:1045600084BD93E095BD9AEF97BD80936E000E9445
:104570004B0C811102C00E94940B06E611E0D80199
:104580008D918D018F3F11F00E94DA07B1E0053760
:104590001B07A9F705E711E06AE7E62E61E0F62EB2
:1045A000F80181918F018F3F11F00E94DA07E01628
:1045B000F106B1F78AE0E7E6F3E0DF01282F1D926C
:1045C0002A95E9F7E0E5F3E0DF011D928A95E9F726
:1045D0008BE490E00E94FD28AC0190934F03809300
:1045E0004E0330E020E0FA01E20FF31F90E0119259
:1045F0009F5F9F30E1F7215F3F4F2B34310599F7E3
:104600000E94F615811102C00E94171182E090E00D
:104610000E94582A80935B030E94640C9093A60624
:104620008093A5060E94EB20EFE3FCE93197F1F7B8
:1046300000C000000E94EB208091670380FF08C04B
:104640006FEF7FEF90E080E00E949A2A0E94B40A08
:1046500083E090E00E94582A0E943F120E94520D6F
:104660001092A9038FEF9FEF9093C3038093C2032F
:104670009093C5038093C4039093C7038093C603AC
:104680009093C9038093C8039093CB038093CA038C
:104690009093CD038093CC039093CF038093CE036C
:1046A0009093D1038093D0030E94F615811104C02A
:1046B0000E9417110E94820F46E050E06CE170E00A
:1046C0008DED96E00E94482A1092DC068091DD066E
:1046D0008C7F11F40E94820F80915A03811133C0A4
:1046E0000E94F615811104C00E9417110E94051145
:1046F00088E090E00E94602A6093E3067093E406ED
:104700008093E5069093E6066E7F71F40E94051192
:1047100088E090E00E94602A6093E3067093E406CC
:104720008093E5069093E6060E9420071092780396
:104730008091E30680FF04C060E086950E94BB176D
:1047400081E080935A038091A50680688093A50636
:104750008091A5069091A6060E94A40B8AE091E0A4
:1047600090939D0680939C0698E1892E912C20E4DD
:10477000422E30E1532E42E1642E50E1752E80919D
:10478000CF06853049F48091CF06853009F421C1E8
:104790000E9444120E9491060E94EB20882359F047
:1047A0008FB7F8944091A1065091A2066091A3069C
:1047B0007091A4068FBFE7E6F3E0ACE5B3E010E04C
:1047C00000E0602FE190F1902D913D912E153F0575
:1047D00009F458C1D12CAA24A394B12C2E253F252D
:1047E000A9014A215B21452B09F446C1D9A26AA33C
:1047F000EA20FB2081E0E114F10409F480E08BA3BE
:104800000E9452178160782F9DA38CA349A15AA1C1
:104810006BA18DA10E946720F801EE0FFF1FE45AE3
:10482000FC4F80819181A826B926B182A082EF2811
:1048300071F08FE0809FF001819FF00D1124EE5701
:10484000FE4FED0DF11D80818F3F09F0FCC0D12C92
:104850000D2D10E08091A903800F912F911D0997D4
:104860006CF188E090E07C01E01AF10AB80166552D
:104870007C4FA7018AEA93E00E943F2AB8016E5458
:104880007C4FA70182EB93E00E943F2AA701440FCF
:10489000551FB801660F771F6E537C4F82EC93E073
:1048A0000E943F2AB80166547C4FA7018AEB93E02F
:1048B0000E943F2A88E08D198093A9038091A90363
:1048C00090E0AC2DB0E09D01220F331F23533E4FEB
:1048D000AA0FBB1FBD0162537E4F41E0480F9D15DB
:1048E00008F4B5C08093A90380917803882309F464
:1048F0003EC0909177038091E3068695891B809353
:104900007303923009F0D5C063E00E944F28E92F6D
:10491000F0E0E55DFD4FE4910E2F10E02DE9E22E71
:104920002FE0F22E80917403882361F010927403BB
:104930000E94521790937203809371031092760332
:10494000109275030E945217E0917103F091720367
:104950008E1B9F0B8F3F9F4750F40E0F1F1F10930E
:1049600072030093710381E793E0F70109950E94B8
:104970000A0E0E9491069091660389138093660344
:104980008091CF06843009F0FACE83E08093E9006D
:104990008091E80082FFF3CE8091E80090E085FFEF
:1049A00006C00E949B04882309F48AC091E080918C
:1049B000E8008B778093E800992309F4E0CEE98141
:1049C000E150E33108F01BC1F0E0E55EF44D0C94DA
:1049D0006F288091CF06843019F10E940A0E109240
:1049E000A0060FB6F894A895809260000FBE409282
:1049F000600083B7817F846083BF83B7816083BF9A
:104A00007894889583B78E7F83BF0FB6F894A89566
:104A100080916000886180936000109260000FBEFA
:104A20008091CE06882309F4AECE0E94EB20E7E603
:104A3000F3E081919191892B09F003C223E0E137E2
:104A4000F207B9F7A0CEC82EDD24D39401CF90E0B1
:104A5000FC01E755FC4FD9015C915183DB015C916E
:104A60005187C18A880F991FFC01E755FC4F128EB0
:104A7000118E91E0842F31CFD394AA0CBB1C8FE010
:104A8000D812AECE0F5F1F4F0530110509F099CE39
:104A90008FEF8EA38FA318A60E9452178160782FE4
:104AA0009AA789A74EA15FA168A58AA50E94672041
:104AB0001BCF00ED17E091E0E92E96E0F92E32CF02
:104AC00080E2E82EF12C8E010F5F1F4F8091E800ED
:104AD00085FD0AC08091E8008B778093E8000E94F2
:104AE0009B04882399F362CF8091F100D8018D93C4
:104AF0008D01B1E0EB1AF10849F758CF1A8289E02D
:104B00008B831AC08A81823009F4B1C18330D9F114
:104B1000813009F074C02FB7F8946091A1067091AC
:104B2000A2068091A3069091A4062FBF0E9475282B
:104B30006B837C838D839E838091CF06843009F0C4
:104B40001ECE1091E9001F709091EC00892F8170AA
:104B500090FD80E8182B82E08093E9008091E800C6
:104B600080FF0DC050E040E060E270E0CE010196B1
:104B70000E94CC048091E8008E778093E8001F703B
:104B80001093E900FCCD809167039091680398270A
:104B9000892798279C838B838091690390916A036E
:104BA0009827892798279E838D8380916B03909106
:104BB0006C0398278927982798878F8380916D03A6
:104BC00090916E039827892798279A8789878091E3
:104BD0006F03909170039827892798279C878B876C
:104BE000ABCF8A81823059F46B817C818D819E812B
:104BF0000E94752886E290E00E947C2A9DCF8FEF6C
:104C000089839ACF4C816B818A810E94B20B98274D
:104C1000892798279E838D838FCF2D813E813227D0
:104C2000232732274C816B818A810E941D0B84CF00
:104C30000E94430B81CF8A818138C1F060F48038B3
:104C400009F07ACF20E04B816091E5068091E4067F
:104C50000E944D1071CF823859F1833809F06CCF22
:104C600020E04091E6066C818B81F2CF60E08B8181
:104C70000E94BB179B818091E306911111C08E7F2A
:104C80008093E30610927803EFEFF0E722E0E15023
:104C9000F0402040E1F700C000000E94D80A4CCF4D
:104CA00081608093E30660E086950E94BB1744CF45
:104CB0008B818093E70640CF8A81813899F030F468
:104CC000803809F039CF8091E6061ACF823891F00A
:104CD000833809F031CF8091E4068B838091E5061B
:104CE0008C832ACF8091E30680FF02C0869508CF8F
:104CF00080E006CF8091E70603CF6091E3067091D4
:104D0000E4068091E5069091E6060E943A1014CFE1
:104D10007A8212CF81E08A8381E8F2CEEA80FB803A
:104D2000FE24EF24FE248E010F5F1F4FAC80A00EE7
:104D3000B12EB11CC70181589D4FA016B10609F4D0
:104D4000FBCEA1E8EA16A1E0FA0650F40E94582A28
:104D5000F8018483BFEFEB1AFB0A0F5F1F4FEACF06
:104D6000D80114961C92F6CF0A811B8110270127C7
:104D70001027FE0131965F01EC80E00EF12EF11C50
:104D8000C80181589D4F0E151F0509F4D5CE013875
:104D9000F1E01F0728F4D50114966C910E947C2A3B
:104DA000BFEFAB1ABB0A0F5F1F4FEACF0E940D0B7C
:104DB000C3CE84E08A83C0CEEA80FB80FE24EF2449
:104DC000FE248E010F5F1F4FAC80A00EB12EB11CD0
:104DD000C70187960A151B0509F4AECEE8E5EE1665
:104DE000E2E0FE0658F40E94582AD80114968C93EB
:104DF000FFEFEF1AFF0A0F5F1F4FEACFF80114828F
:104E0000F7CF0A811B81102701271027CE010196B9
:104E10005C01EC80E00EF12EF11CC8018796E016D3
:104E2000F10609F489CE0835A2E01A0720F4F5014D
:104E300064810E947C2AFFEFAF1ABF0A0F5F1F4FE9
:104E4000ECCF59BC69BC09B400FEFDCF8091D800FD
:104E50008F7D8093D8008091E00082608093E00095
:104E60008091E00081FDFCCF0E9444128CCC86E250
:104E700090E00E94582A1B821C821D828E835CCE89
:104E80001092B9008CE08093B8000895B0E0A0E0E3
:104E9000ECE4F7E20C941F28B82EEB010E945217A5
:104EA0006C01EE24E394F12CC431D10560F025E0CF
:104EB000E22EF12CCF3FDC0731F0CE0164E170E04F
:104EC0000E9404287B0184EAA82E94E8992E10926F
:104ED000BC00A092BC000E9452178C018091BC00C3
:104EE00087FF0DC08091B900887F883001F18091E3
:104EF000B900887F8031D9F00FEF1FEF09C00E9401
:104F00005217801B910B8E159F0540F30EEF1FEF7C
:104F1000CF3FDC07E1F2C6010E9443178C179D07C3
:104F2000B0F2C801CDB7DEB7EBE00C943B28B092ED
:104F3000BB009092BC000E9452178C018091BC0073
:104F400087FF0AC08091B900887F883111F08034D2
:104F500099F610E000E0E5CF0E945217801B910BFC
:104F60008E159F0558F3D2CF0F931F93CF93DF93E6
:104F7000EB018093BB0084E88093BC000E94521731
:104F80008C018091BC0087FF11C02091B900287F5F
:104F900081E090E0283211F490E080E091958195D5
:104FA0009109DF91CF911F910F910895CF3FDC07B9
:104FB00041F30E945217801B910B8C179D0708F339
:104FC0008EEF9FEFEECFB0E0A0E0E9EEF7E20C94B9
:104FD00022286B018A017901B9010E944627E60166
:104FE0000C0D1D1DC017D10711F097FF08C024E953
:104FF0002093BC00CDB7DEB7E8E00C943E28B701A3
:1050000089910E94B427EECFAA1BBB1B51E107C0B8
:10501000AA1FBB1FA617B70710F0A61BB70B881F48
:10502000991F5A95A9F780959095BC01CD010895D7
:105030002F923F924F925F926F927F928F929F92A8
:10504000AF92BF92CF92DF92EF92FF920F931F9396
:10505000CF93DF93CDB7DEB7CA1BDB0B0FB6F89447
:10506000DEBF0FBECDBF09942A88398848885F8487
:105070006E847D848C849B84AA84B984C884DF80F8
:10508000EE80FD800C811B81AA81B981CE0FD11DDC
:105090000FB6F894DEBF0FBECDBFED010895991B8A
:1050A00079E004C0991F961708F0961B881F7A951F
:1050B000C9F78095089597FB072E16F4009407D042
:1050C00077FD09D00E94042807FC05D03EF4909596
:1050D00081959F4F0895709561957F4F0895EE0FCC
:1050E000FF1F0590F491E02D099469279627692701
:1050F0007827872778270895CF92DF92EF92FF9243
:10510000CF93DF93CDB7DEB72A970FB6F894DEBF03
:105110000FBECDBF89879A87A985BA852D913D910C
:105120004D915C9129833A834B835C83232B242B01
:10513000252B41F424E239ED4BE557E029833A83EE
:105140004B835C8369817A818B819C812DE133EF74
:1051500041E050E00E94A02A69017A01A7EAB1E487
:105160009B01AC010E94BF2A69837A838B839C8355
:10517000ACEEB4EFA70196010E94CD2A9B01AC01D1
:1051800089819A81AB81BC81820F931FA41FB51FB7
:10519000B7FF03C00197A109B048E985FA8580836C
:1051A0009183A283B3839F772A960FB6F894DEBFCC
:1051B0000FBECDBFDF91CF91FF90EF90DF90CF90EA
:1051C00008950E947C28089580E091E00E947C2848
:1051D0000895B0E0A0E08093000190930101A093B6
:1051E0000201B09303010895FB01DC0102C00590A8
:1051F0000D9241505040D8F708950F931F93CF93CD
:10520000DF939C01029710F422E030E0E091AA02C3
:10521000F091AB0290E080E0B0E0A0E0309791F434
:10522000009709F445C0821B930B84309105B8F5B3
:105230008A819B816115710569F1FB0193838283EA
:10524000FE0111C040815181028113814217530731
:10525000F0F04217530799F4109761F012960C93EF
:10526000129713961C933296CF01DF91CF911F9125
:105270000F9108950093AA021093AB02F4CF009708
:1052800019F04817590718F4CA01BD01EF01DF01F1
:10529000F801C4CF9093AB028093AA02D1CFFE0154
:1052A000E80FF91F21933193029799838883DCCF0C
:1052B0008091AC029091AD02892B41F4809106015E
:1052C000909107019093AD028093AC02809104010C
:1052D00090910501009741F48DB79EB74091080168
:1052E00050910901841B950B4091AC025091AD0285
:1052F0004817590708F0B8CF841B950B82179307FE
:1053000008F4B2CFB9016E5F7F4F8617970708F494
:10531000ABCF640F751F7093AD026093AC02FA01BE
:1053200021933193A1CFCF93DF939C010097E9F0B4
:10533000FC01329713821282C091AA02D091AB0273
:10534000DE0190E080E02097A1F480819181280F18
:10535000391F8091AC029091AD028217930709F03A
:1053600067C0F093AD02E093AC02DF91CF91089556
:10537000DA01AE17BF0708F041C012964D915C915B
:105380001397CD014115510599F7DC011396FC9354
:10539000EE9312974D915D91A40FB51FEA17FB078D
:1053A00081F4208131812E5F3F4F240F351FDC01B6
:1053B00011963C932E932281338113963C932E9326
:1053C0001297B0E0A0E08A819B810097B1F5FE01C1
:1053D00081919191E80FF91F8091AC029091AD02FB
:1053E0008E179F0711F6109759F51092AB02109285
:1053F000AA02D093AD02C093AC02B7CFB383A2830D
:1054000040815181240F351FA217B30771F44E5FFD
:105410005F4F2D913C911197240F351F31832083CD
:1054200012962D913C9133832283009709F0ADCFE2
:10543000F093AB02E093AA0298CFDE01EC01C3CF58
:1054400013961C921E921297D4CFFC0141505040EB
:1054500030F001900616D1F73197CF0108958827D3
:1054600099270895FB01DC0104C08D9101908019FA
:1054700021F441505040C8F7881B990B0895FB0157
:10548000DC0102C001900D9241505040D8F70895C0
:10549000DC01CB01FC01F999FECF06C0F2BDE1BDF4
:1054A000F89A319600B40D9241505040B8F70895E3
:1054B000F999FECF92BD81BDF89A992780B50895DC
:1054C000A6E1B0E044E050E00C944A2AA8E1B0E044
:1054D00042E050E00C944A2ADC01A40FB51F415071
:1054E000504048F0CB01840F951F2E910E947D2AD9
:1054F00041505040D0F70895262FF999FECF92BD24
:1055000081BDF89A019700B4021639F01FBA20BD88
:105510000FB6F894FA9AF99A0FBE08950396272FBA
:105520000E947D2A0E947C2A252F0E947D2A242FFA
:105530000C947D2A0196272F0E947D2A0C947C2AA8
:10554000052E97FB1EF400940E94B72A57FD07D042
:105550000E94D22A07FC03D04EF40C94B72A50952F
:105560004095309521953F4F4F4F5F4F089590954F
:105570008095709561957F4F8F4F9F4F08950E9442
:10558000F42AA59F900DB49F900DA49F800D911DAE
:1055900011240895B7FF0C94BF2A0E94BF2A821BD2
:1055A000930B0895A1E21A2EAA1BBB1BFD010DC08F
:1055B000AA1FBB1FEE1FFF1FA217B307E407F507C3
:1055C00020F0A21BB30BE40BF50B661F771F881F9F
:1055D000991F1A9469F760957095809590959B0135
:1055E000AC01BD01CF010895A29FB001B39FC001DE
:1055F000A39F700D811D1124911DB29F700D811DFF
:105600001124911D0895F894FFCF3B1363130615E1
:10561000631306159613B7130615B514C214CB1BE6
:10562000CB1B061C061C9D1C351C351C351CB71CD1
:10563000241D351D351D7E258225F12502260D26CA
:1056400018261B265C267D26FF25FF2588268A2610
:0C5650008E26B426D626D926DC2601279B
:10565C00010000000000ED0620000306740A02069B
:10566C006F0A6A0A000601FFFF00FF0001FF00003D
:10567C00000000000000000000000000000000001E
:10568C0000036EFFFF818283E200E900EA00B500AF
:10569C00B600B700CD008301CC008A0192019401C1
:1056AC002102230224022502260227022A02B30029
:1056BC00B4006F007000F0F130313233C63792977E
:1056CC00343536666796949593F600010202020211
:1056DC000202000102030405060708090A0B0C0D5F
:1056EC000E0F101112131415161718191A1B1C1D56
:1056FC001E1F20212223242526272829FF2A2B2C74
:10570C00FF2D2E2F303132333435363738393A3B82
:10571C003CFFFFFF3DFFFF3E3F4041424300000F77
:10572C00001E002D003C004B005A006900780087D9
:10573C00009600A500B400CB00E000041017102662
:10574C00103510441053106210711080108F109E81
:10575C0010AD10BC10CE10E01006201A20292038F5
:10576C0020472056206520742083209220A120B051
:10577C0020C920E02009302230313040304F305EDB
:10578C00306D307C308B309A30A930BD30D230E067
:10579C003002401540274060409640A540B440C3BD
:1057AC0040D240E040010404040404040404040452
:1057BC0004040401010404040404040404040404A3
:1057CC000404010104040404040404040404040493
:1057DC000101040404040404040404040404010189
:1057EC0001010401010101010140226D3B0119017C
:0857FC00AC00A807C107E1079A
:00000001FF
